:1000000005308A000F2D0000D334E3306B36E9351C
:10001000A01EA012AE186610C3060000C830F6304D
:10002000A029EF33F5350D00D334E3306B36E935D5
:10003000A01EA012AE186610C3060001C830F6302C
:10004000A024EC34EB060001D334E3306B36E93501
:10005000A01EA012AE186610C3060001C830F6300C
:10006000A029E931E1350D008E30F7002C08F800A9
:100070002B08F900FA01F808031D48287908F80050
:10008000F9010830F702F808031D4828F701502845
:100090000310F81B4F28F90DF80DF7034828F81343
:1000A0008A110A125B2D38080319C328C0003C08C6
:1000B0000319C328C007031864287F30C002031C3B
:1000C000C3280319C32868288130C0070318C32830
:1000D0004008F700F801F901FA013908C400C41713
:1000E0003A08C3003B08C2001830C000C101421CDE
:1000F00091283F08FA07031C8328F90A031D832867
:10010000F80A0319C1173E08F907031C8A28F80AE0
:100110000319C1173D08BA00BA173A08F8070318BF
:10012000C117C10DF80CF90CFA0CC40CC30CC20CAD
:100130000310C00B76280130F7070318C328F81BFB
:10014000A828C40DFA0DF90DF80DF7030319C328FB
:10015000C41FB928FA0A031DB928F90A031DB928D2
:10016000F80A031DB928F80CF90CFA0CF70A031960
:10017000C3283908C1003D08C106C11FC128F817AE
:10018000C728F813C728F701F801F901FA01080098
:100190002B0803198D29B7002F0803198D29B702E1
:1001A000031CD7287F30B70703188D29DD2881303D
:1001B000B702031C8D2903198D293708F700F801B0
:1001C000F901FA01B6012C08B500B5172D08B400E5
:1001D0002E08B3001930B7003208B3020318002903
:1001E0000130B40203180029B50203180029B60231
:1001F00003180029B60AB50AB40A3208B30732292F
:100200003108B40203181B290130B50203181B2959
:10021000B60203181B29B60AB50A3108B40732081A
:10022000B307031C3229B40A031D3229B50A031D82
:100230003229B60A322930088038B502031831292C
:100240000130B60203183129B60A30088038B507E4
:100250003108B407031C0F29B50A031D0F29B60A7C
:100260000F297A14B70B352940290310B30DB40DAB
:10027000B50DB60D0310FA0DF90DF80DB80DEC28FB
:10028000381C48290310F80CF90CFA0CB80C4B294F
:10029000F70303198D29B81B74290310B30DB40D8E
:1002A000B50DB60D3208B302031860290130B4024F
:1002B00003186029B50203186029B602031C8329BC
:1002C0003108B40203186B290130B50203186B29F9
:1002D000B602031C832930088038B502031874293C
:1002E0000130B602031C8329FA0A031D8329F90A87
:1002F000031D8329F80A031D8329F70A03198D2991
:10030000F80CF90CFA0C2C08B7003008B706B71F28
:100310008B29F8179129F8139129F701F801F901B0
:10032000FA018A110A12982D80308318B406B90197
:10033000BA013008B8003408B8062F080319842A17
:10034000B700F700330803198D2AB7020319292AC9
:10035000031CE7293408BD00BD173508BC0036086A
:10036000BB00BA010310BD0CBC0CBB0CBA0CB70B24
:10037000B129B81FBE293914A12A391037103916EE
:10038000323084008313B62A3912B81BD129371CA6
:10039000DC29BD0CBC0CBB0CBA0CF70A03199C2A57
:1003A000DC29BD1BDF290310BA0DBB0DBC0DBD0D33
:1003B000F70303199C2AD1293917492A3913300820
:1003C000B800B81FE529BD17952ABD13952A330833
:1003D000B700F7002F08B7023008BD00BD1731087D
:1003E000BC003208BB00BA010310BD0CBC0CBB0C36
:1003F000BA0CB70BF329B81F002AB914A12AB910F7
:100400003710B916363084008313B62AB912B81BD8
:10041000132A371C1E2ABD0CBC0CBB0CBA0CF70AE5
:1004200003199C2A1E2ABD1B212A0310BA0DBB0DDD
:10043000BC0DBD0DF70303199C2A132AB917492ACD
:10044000B9133408B800B81F272ABD17952ABD1361
:10045000952A3408BD00BD173508BC003608BB001E
:10046000B81F362ABD133915A12A3911BA01371020
:10047000323084008313B62AB81B5F2A3008B800D4
:10048000371C492ABD0CBC0CBB0CBA0CF70A03196B
:100490009C2ABA1F5A2ABB0A031D5A2ABC0A031DEA
:1004A0005A2ABD0A031D5A2ABD0CBC0CBB0CF70A04
:1004B00003199C2A391BDE29B91B202A7E2A803089
:1004C000BD06BD1F672AA12A3408B800742A300867
:1004D000B800BD08031D742ABC08031D742ABB089C
:1004E000031D742AF701952ABD1B7E2A0310BA0D3D
:1004F000BB0DBC0DBD0DF70B742A9C2AB81F822AB8
:10050000BD17952ABD13952A3308F7003408BD009E
:100510003508BC003608BB00952A2F08F7003008C4
:10052000BD003108BC003208BB003D08F8003C08A3
:10053000F9003B08FA00D42AF701F801F901FA01A1
:10054000D42ABA01BB09BC09BD09BA09BA0A031DFC
:10055000AF2ABB0A031DAF2ABC0A0319BD0A39180A
:10056000BD29B918FF293919352A642A0008BB07A3
:10057000031CC02ABC0A031DC02ABD0A0319371474
:1005800084030008BC07031CC82ABD0A03193714DA
:1005900084030008801F803ABD0703183714391AF6
:1005A000C429B91A062A3C2A8A110A12AF2D2C082E
:1005B000B3003008B306B31FE22A03110310AC1BCB
:1005C0000314152B2C08B3002F08B4002B08B40219
:1005D0000319F02AB31F152B0308013A8300152BCA
:1005E0003008B4002C08B4020319FC2AB31F152BE1
:1005F0000308013A8300152B3108B4002D08B4021A
:100600000319082BB31F152B0308013A8300152B80
:100610003208B4002E08B4020319142BB31F152B93
:100620000308013A8300152B031008000B08AC00E7
:100630008B13831603178C170C1400000000831211
:100640000313AC1B8B1703184E2B03170C087F39B1
:100650000313AC0003170D080313AD0003170F08B5
:100660000313AE002C080C1E332B99002D08031722
:100670008D0003132E0803178F0003130B08AF0020
:100680008B13831603178C170C14000000008312C1
:100690000313AF1B8B17AB0B4E2B6E2B03170C0DDD
:1006A0000E0D7F390313AC0003170D080313AD00C3
:1006B00003170F080313AE002C080C1E5D2B9900C6
:1006C0002D0803178D0003132E0803178F008D0AC2
:1006D00003198F0A03100313AB0B162B08008318A2
:1006E000742B403084008313F701F801F901FA01FB
:1006F000C001C101C201C3013F083E043D043C04E6
:100700000319B22B2030C4000310B80DB90DBA0D77
:10071000BB0DC00DC10DC20DC30D3F084302031D2B
:100720009B2B3E084202031D9B2B3D084102031DEB
:100730009B2B3C084002031CAC2B3C08C0023D082C
:10074000031C3D0FC1023E08031C3E0FC2023F08BE
:10075000031C3F0FC3020314F70DF80DF90DFA0D3A
:10076000C40B842B40088000840A41088000840A5E
:1007700042088000840A4308800008000408B00092
:100780002F08B2000319DD2B2E08BB002D08BA007C
:100790002C08B9002B08B800BF01BE012030BD00F5
:1007A0008230BC0053207A08AE007908AD0078088A
:1007B000AC007708AB00B20BC42B2E08BB002D0891
:1007C000BA002C08B9002B08B8003808B63CB800AD
:1007D000FA013908BC00B9170310B90CBA0CBB0CEC
:1007E000FA0CF90CF80CF70CB80BEC2BBC1F032C13
:1007F000F709F809F909FA09F70A0319F80A0319B8
:10080000F90A0319FA0A7A08AE007908AD007808E7
:10081000AC007708AB00AE1F1A2CB003B016AB09C2
:10082000AC09AD09AE09AB0A0319AC0A0319AD0A4C
:100830000319AE0A3B30B7009A30B600CA30B50093
:10084000B4010A30B2002F080319B00A83142B3008
:10085000840083132E08BB002D08BA002C08B900B1
:100860002B08B8003708BF003608BE003508BD00A9
:100870003408BC006F237808F708031D522C2F0A98
:1008800032020319522C30080319542C0F3932024A
:1008900003194C2C0318882CB01B882C301B542CAB
:1008A0002030832C2030B005B01E632CB0122F08EE
:1008B000031DB0037708B0002D300C1E5D2C99008D
:1008C0003008F700B0012F083202031D722C7708A0
:1008D000B0002E300C1E6A2C99003008F700203032
:1008E000B00500303030B01E832CB0122F08031D2D
:1008F000B0037708B0002D300C1E7C2C9900300816
:10090000F700B0013030F70777080C1E852C9900EE
:1009100083103708BB003608BA003508B900340820
:10092000B800BF01BE01BD010A30BC006F237A08C8
:10093000B7007908B6007808B5007708B400B20BA4
:10094000262C08000B08AB008B13831603178C179B
:100950000C140000000083120313AB1B8B1703174A
:100960000C087F390319F82C0313AB0003170D088B
:100970000313AC0003170F080313AD002B080C1E64
:10098000BF2C99002C0803178D0003132D080317A3
:100990008F0003130B08AE008B13831603178C17FD
:1009A0000C140000000083120313AE1B8B170317F7
:1009B0000C0D0E0D7F390319F82C0313AB00031730
:1009C0000D080313AC0003170F080313AD002B0829
:1009D0000C1EE82C99002C0803178D0003132D081A
:1009E00003178F008D0A03198F0A0313A22C031714
:1009F000031308002C3084008313000803190E2D04
:100A00000130F800F701F70B032DF80B022D4A30E7
:100A1000F700F70B092D0C2D800B002D08000308A3
:100A20001F398300193083169900A6309800903042
:100A300083129800AA01A90183161F149F141F1581
:100A40009F118313091283129001F0309D0500302D
:100A5000F80006389200FF30831692001F109F1096
:100A60001F119F1183121F139F1783169F17831245
:100A70001F140030F8001F08C73978049F000630A3
:100A8000F700F70B412D000007110C3097000130E3
:100A90008316850000308600C030870083128601EF
:100AA0001F151F19512D83161E088312A000AC01BB
:100AB0002008AB0034287A08BB007908BA0078080F
:100AC000B9007708B800BF01BE012030BD00773003
:100AD000BC0053207A08AE007908AD007808AC005D
:100AE0007708AB007A08BB007908BA007808B9002B
:100AF0007708B800BF01BE017A30BD008830BC0065
:100B000053207A08A4007908A3007808A200770887
:100B1000A1002408AE002308AD002208AC00210883
:100B2000AB00B201B1012030B0008230AF00C82864
:100B30007A08AE007908AD007808AC007708AB0001
:100B400083107A08B2007908B1007808B0007708FD
:100B5000AF00B601B501B4018030B30094297A0822
:100B6000A8007908A7007808A6007708A500AE01BC
:100B7000AD01AC01AB012808B2002708B10026087E
:100B8000B0002508AF00D7220318C82D031D112E71
:100B90002808AE002708AD002608AC002508AB00E9
:100BA000B201B1017030B0008230AF00D72203181B
:100BB000DB2D031D112E043003178D0000308F0034
:100BC00003100B300313AB00162389308400280870
:100BD000AE002708AD002608AC002508AB000130A8
:100BE000AF00BE2320300C1EF32D990043300C1EA5
:100BF000F72D99000D300C1EFB2D99000E300317B8
:100C00008D0000308F000313A2240230AB00FA30B5
:100C1000AC00FA24AB0B072E06148611061320082D
:100C20009500AE01AD01AC018330AB002808B200E5
:100C30002708B1002608B0002508AF00D722031806
:100C4000232E031D6C2E2808AE002708AD002608B1
:100C5000AC002508AB00B201B1014830B0008330D0
:100C6000AF00D7220318362E031D6C2E1430031745
:100C70008D0000308F0003100B300313AB001623E0
:100C8000893084002808AE002708AD002608AC0093
:100C90002508AB000130AF00BE2320300C1E4E2EC5
:100CA000990043300C1E522E99000D300C1E562E0A
:100CB00099001E3003178D0000308F000313A2240B
:100CC0000230AB00FA30AC00FA24AB0B622E0617F0
:100CD0000610861120089500AE01AD015030AC0021
:100CE0008330AB002808B2002708B1002608B00006
:100CF0002508AF00D72203187F2E031DB52E243000
:100D000003178D0000308F0003100B300313AB006E
:100D10001623893084002808AE002708AD00260875
:100D2000AC002508AB000130AF00BE2320300C1E04
:100D3000972E990043300C1E9B2E99000D300C1EEF
:100D40009F2E99002E3003178D0000308F00031363
:100D5000A2240230AB00FA30AC00FA24AB0BAB2E6D
:0E0D600086150613061020089500502D63001E
:02400E00393B3C
:00000001FF
;PIC16F877
;CRC=B9BA  CREATED="14-Eyl-22 00:56"
